{
  "abi": [
    {
      "inputs": [
        {
          "internalType": "address",
          "name": "owner",
          "type": "address"
        }
      ],
      "name": "OwnableInvalidOwner",
      "type": "error"
    },
    {
      "inputs": [
        {
          "internalType": "address",
          "name": "account",
          "type": "address"
        }
      ],
      "name": "OwnableUnauthorizedAccount",
      "type": "error"
    },
    {
      "anonymous": false,
      "inputs": [
        {
          "indexed": true,
          "internalType": "address",
          "name": "previousOwner",
          "type": "address"
        },
        {
          "indexed": true,
          "internalType": "address",
          "name": "newOwner",
          "type": "address"
        }
      ],
      "name": "OwnershipTransferred",
      "type": "event"
    },
    {
      "anonymous": false,
      "inputs": [
        {
          "indexed": false,
          "internalType": "address",
          "name": "trader",
          "type": "address"
        },
        {
          "indexed": false,
          "internalType": "address",
          "name": "subject",
          "type": "address"
        },
        {
          "indexed": false,
          "internalType": "bool",
          "name": "isBuy",
          "type": "bool"
        },
        {
          "indexed": false,
          "internalType": "uint256",
          "name": "shareAmount",
          "type": "uint256"
        },
        {
          "indexed": false,
          "internalType": "uint256",
          "name": "ethAmount",
          "type": "uint256"
        },
        {
          "indexed": false,
          "internalType": "uint256",
          "name": "protocolEthAmount",
          "type": "uint256"
        },
        {
          "indexed": false,
          "internalType": "uint256",
          "name": "subjectEthAmount",
          "type": "uint256"
        },
        {
          "indexed": false,
          "internalType": "uint256",
          "name": "supply",
          "type": "uint256"
        }
      ],
      "name": "Trade",
      "type": "event"
    },
    {
      "inputs": [
        {
          "internalType": "address",
          "name": "sharesSubject",
          "type": "address"
        },
        {
          "internalType": "uint256",
          "name": "amount",
          "type": "uint256"
        }
      ],
      "name": "buyShares",
      "outputs": [],
      "stateMutability": "payable",
      "type": "function"
    },
    {
      "inputs": [
        {
          "internalType": "address",
          "name": "sharesSubject",
          "type": "address"
        },
        {
          "internalType": "uint256",
          "name": "amount",
          "type": "uint256"
        }
      ],
      "name": "getBuyPrice",
      "outputs": [
        {
          "internalType": "uint256",
          "name": "",
          "type": "uint256"
        }
      ],
      "stateMutability": "view",
      "type": "function"
    },
    {
      "inputs": [
        {
          "internalType": "address",
          "name": "sharesSubject",
          "type": "address"
        },
        {
          "internalType": "uint256",
          "name": "amount",
          "type": "uint256"
        }
      ],
      "name": "getBuyPriceAfterFee",
      "outputs": [
        {
          "internalType": "uint256",
          "name": "",
          "type": "uint256"
        }
      ],
      "stateMutability": "view",
      "type": "function"
    },
    {
      "inputs": [
        {
          "internalType": "uint256",
          "name": "supply",
          "type": "uint256"
        },
        {
          "internalType": "uint256",
          "name": "amount",
          "type": "uint256"
        }
      ],
      "name": "getPrice",
      "outputs": [
        {
          "internalType": "uint256",
          "name": "",
          "type": "uint256"
        }
      ],
      "stateMutability": "pure",
      "type": "function"
    },
    {
      "inputs": [
        {
          "internalType": "address",
          "name": "sharesSubject",
          "type": "address"
        },
        {
          "internalType": "uint256",
          "name": "amount",
          "type": "uint256"
        }
      ],
      "name": "getSellPrice",
      "outputs": [
        {
          "internalType": "uint256",
          "name": "",
          "type": "uint256"
        }
      ],
      "stateMutability": "view",
      "type": "function"
    },
    {
      "inputs": [
        {
          "internalType": "address",
          "name": "sharesSubject",
          "type": "address"
        },
        {
          "internalType": "uint256",
          "name": "amount",
          "type": "uint256"
        }
      ],
      "name": "getSellPriceAfterFee",
      "outputs": [
        {
          "internalType": "uint256",
          "name": "",
          "type": "uint256"
        }
      ],
      "stateMutability": "view",
      "type": "function"
    },
    {
      "inputs": [],
      "name": "owner",
      "outputs": [
        {
          "internalType": "address",
          "name": "",
          "type": "address"
        }
      ],
      "stateMutability": "view",
      "type": "function"
    },
    {
      "inputs": [],
      "name": "protocolFeeDestination",
      "outputs": [
        {
          "internalType": "address",
          "name": "",
          "type": "address"
        }
      ],
      "stateMutability": "view",
      "type": "function"
    },
    {
      "inputs": [],
      "name": "protocolFeePercent",
      "outputs": [
        {
          "internalType": "uint256",
          "name": "",
          "type": "uint256"
        }
      ],
      "stateMutability": "view",
      "type": "function"
    },
    {
      "inputs": [],
      "name": "renounceOwnership",
      "outputs": [],
      "stateMutability": "nonpayable",
      "type": "function"
    },
    {
      "inputs": [
        {
          "internalType": "address",
          "name": "sharesSubject",
          "type": "address"
        },
        {
          "internalType": "uint256",
          "name": "amount",
          "type": "uint256"
        }
      ],
      "name": "sellShares",
      "outputs": [],
      "stateMutability": "payable",
      "type": "function"
    },
    {
      "inputs": [
        {
          "internalType": "address",
          "name": "_feeDestination",
          "type": "address"
        }
      ],
      "name": "setFeeDestination",
      "outputs": [],
      "stateMutability": "nonpayable",
      "type": "function"
    },
    {
      "inputs": [
        {
          "internalType": "uint256",
          "name": "_feePercent",
          "type": "uint256"
        }
      ],
      "name": "setProtocolFeePercent",
      "outputs": [],
      "stateMutability": "nonpayable",
      "type": "function"
    },
    {
      "inputs": [
        {
          "internalType": "uint256",
          "name": "_feePercent",
          "type": "uint256"
        }
      ],
      "name": "setSubjectFeePercent",
      "outputs": [],
      "stateMutability": "nonpayable",
      "type": "function"
    },
    {
      "inputs": [
        {
          "internalType": "address",
          "name": "",
          "type": "address"
        },
        {
          "internalType": "address",
          "name": "",
          "type": "address"
        }
      ],
      "name": "sharesBalance",
      "outputs": [
        {
          "internalType": "uint256",
          "name": "",
          "type": "uint256"
        }
      ],
      "stateMutability": "view",
      "type": "function"
    },
    {
      "inputs": [
        {
          "internalType": "address",
          "name": "",
          "type": "address"
        }
      ],
      "name": "sharesSupply",
      "outputs": [
        {
          "internalType": "uint256",
          "name": "",
          "type": "uint256"
        }
      ],
      "stateMutability": "view",
      "type": "function"
    },
    {
      "inputs": [],
      "name": "subjectFeePercent",
      "outputs": [
        {
          "internalType": "uint256",
          "name": "",
          "type": "uint256"
        }
      ],
      "stateMutability": "view",
      "type": "function"
    },
    {
      "inputs": [
        {
          "internalType": "address",
          "name": "newOwner",
          "type": "address"
        }
      ],
      "name": "transferOwnership",
      "outputs": [],
      "stateMutability": "nonpayable",
      "type": "function"
    }
  ],
  "bytecode": {
    "object": "0x6080806040523461007a5733156100645760008054336001600160a01b03198216811783556040519290916001600160a01b0316907f8be0079c531659141344cd1fd0a4f28419497f9722a3daafe3b4186f6b6457e09080a3610bd590816100808239f35b631e4fbdf760e01b815260006004820152602490fd5b600080fdfe60806040908082526004918236101561001757600080fd5b600092833560e01c928363020235ff146108ef575082630f026f6d146108815782632267a89c1461080d57826324dc441d146107ee5782634635256e146107b25782634ce7957c146107895782635a8a764e146107675782635cf4ee91146107445782636945b12314610531578263715018a6146104d75782638da5cb5b146104af5782639ae7178114610465578263a498342114610443578263b51d05341461021b578263d6e6eb9f146101fc578263f2fde38b1461017057508163f9931be014610134575063fbe53234146100ed57600080fd5b346101315760203660031901126101315761010661093b565b61010e610956565b60018060a01b03166bffffffffffffffffffffffff60a01b600154161760015580f35b80fd5b90503461016c57602036600319011261016c5760209181906001600160a01b0361015c61093b565b1681526005845220549051908152f35b5080fd5b909150346101f85760203660031901126101f85761018c61093b565b90610195610956565b6001600160a01b039182169283156101e257505082546001600160a01b0319811683178455167f8be0079c531659141344cd1fd0a4f28419497f9722a3daafe3b4186f6b6457e08380a380f35b51631e4fbdf760e01b8152908101849052602490fd5b8280fd5b83823461016c578160031936011261016c576020906002549051908152f35b83908260031936011261016c5761023061093b565b6001600160a01b038181168085526005602090815286862054929492916024359190828411156104005761026d836102688187610982565b6109c5565b92670de0b6b3a76400009485610285600254876109a5565b0495610293600354876109a5565b0496838b528085528b8b20338c528552828c8c2054106103c75799808781809e816103b49f6103788e839f9b849f859f869f610100889f91899f95838b809d6103447f2c76e7a47fd53e2854856ac3f0a5f3ee40d15cfaa82266357ea9779c486ab9c3976103739b849f87865280895284862033875289526103188386882054610982565b9088875289528486203387528952848620556103348282610982565b8786526005895284862055610982565b9381519533875286015284015260608301528460808301528560a08301528760c083015260e0820152a1610982565b610982565b335af19b610384610afb565b50600154165af195610394610afb565b505af1906103a0610afb565b50826103bf575b50816103b7575b50610b5c565b80f35b9050836103ae565b9150846103a7565b8b5162461bcd60e51b81529081018590526013602482015272496e73756666696369656e742073686172657360681b6044820152606490fd5b885162461bcd60e51b8152808601839052601a60248201527f43616e6e6f742073656c6c20746865206c6173742073686172650000000000006044820152606490fd5b83903461016c57602036600319011261016c5761045e610956565b3560025580f35b83823461016c578060031936011261016c576104a860209261026861048861093b565b6001600160a01b0316825260058552908390205460243591908290610982565b9051908152f35b83823461016c578160031936011261016c57905490516001600160a01b039091168152602090f35b83346101315780600319360112610131576104f0610956565b80546001600160a01b03198116825581906001600160a01b03167f8be0079c531659141344cd1fd0a4f28419497f9722a3daafe3b4186f6b6457e08280a380f35b908092506003193601126101f85761054761093b565b6001600160a01b0380821680865260056020908152858720549395909190602435851580159061073b575b156106df5761058181876109c5565b91670de0b6b3a76400009687610599600254866109a5565b04976105a7600354866109a5565b04986105bc8a6105b78b886109b8565b6109b8565b34106106a5578b9889987f2c76e7a47fd53e2854856ac3f0a5f3ee40d15cfaa82266357ea9779c486ab9c36101008b9a6103b49f9e999a8c9b8a60018b8f9d61064e908f9e9d8f9e9d8f9e8f8a8152828c528181203382528c5261062385838320546109b8565b928b82528c528181203382528c5220558d8461063f84846109b8565b918a815260058c5220556109b8565b94815196338852870152850152606084015260808301528560a08301528a60c083015260e0820152a1600154165af195610686610afb565b505af1610691610afb565b508161069d5750610b5c565b9050386103ae565b825162461bcd60e51b81529081018790526014602482015273125b9cdd59999a58da595b9d081c185e5b595b9d60621b6044820152606490fd5b815162461bcd60e51b8152808801859052603060248201527f4f6e6c79207468652073686172657327207375626a6563742063616e2062757960448201526f2074686520666972737420736861726560801b6064820152608490fd5b50338314610572565b908334610131578160031936011261013157506104a860209260243590356109c5565b83903461016c57602036600319011261016c57610782610956565b3560035580f35b83823461016c578160031936011261016c5760015490516001600160a01b039091168152602090f35b83823461016c578060031936011261016c576020916104a8906001600160a01b036107db61093b565b16815260058452826024359120546109c5565b83823461016c578160031936011261016c576020906003549051908152f35b83823461016c578060031936011261016c576104a861085360209361026861083361093b565b6001600160a01b0316825260058652908490205460243591908290610982565b610373670de0b6b3a76400008061086c600254856109a5565b049061087a600354856109a5565b0492610982565b83823461016c578060031936011261016c576020916104a8906108c1906001600160a01b036108ae61093b565b16815260058552836024359120546109c5565b6105b7670de0b6b3a7640000806108da600254856109a5565b04906108e8600354856109a5565b04926109b8565b82853461013157816003193601126101315761090961093b565b936024356001600160a01b038181169291839003610937576020961683528552828220908252845220548152f35b8380fd5b600435906001600160a01b038216820361095157565b600080fd5b6000546001600160a01b0316330361096a57565b60405163118cdaa760e01b8152336004820152602490fd5b9190820391821161098f57565b634e487b7160e01b600052601160045260246000fd5b8181029291811591840414171561098f57565b9190820180921161098f57565b80159060008215610aad57506000925b82610aa2575b60009215610a13575050506109f1906000610982565b670de0b6b3a76400009081810291818304149015171561098f57613e80900490565b600019820191808311610a8e5790610a36610a4292610a3c83610a3681886109b8565b926109b8565b906109a5565b600181901b92906001600160ff1b03811603610a7a5760018301809311610a7a5750610a746109f193926006926109a5565b04610982565b634e487b7160e01b81526011600452602490fd5b634e487b7160e01b84526011600452602484fd5b6001811492506109db565b600019820190828211610a7a57610ac483836109a5565b600183901b929091906001600160ff1b03811603610a7a5760018301809311610a7a5750600691610af4916109a5565b04926109d5565b3d15610b575767ffffffffffffffff903d828111610b415760405192601f8201601f19908116603f0116840190811184821017610b415760405282523d6000602084013e565b634e487b7160e01b600052604160045260246000fd5b606090565b15610b6357565b60405162461bcd60e51b8152602060048201526014602482015273556e61626c6520746f2073656e642066756e647360601b6044820152606490fdfea2646970667358221220c62d3a307d236eb67ef2392f4ffca6ca86feeb23f84493af50de2f6165e1ab6064736f6c63430008140033",
    "linkReferences": {}
  },
  "methodIdentifiers": {
    "buyShares(address,uint256)": "6945b123",
    "getBuyPrice(address,uint256)": "4635256e",
    "getBuyPriceAfterFee(address,uint256)": "0f026f6d",
    "getPrice(uint256,uint256)": "5cf4ee91",
    "getSellPrice(address,uint256)": "9ae71781",
    "getSellPriceAfterFee(address,uint256)": "2267a89c",
    "owner()": "8da5cb5b",
    "protocolFeeDestination()": "4ce7957c",
    "protocolFeePercent()": "d6e6eb9f",
    "renounceOwnership()": "715018a6",
    "sellShares(address,uint256)": "b51d0534",
    "setFeeDestination(address)": "fbe53234",
    "setProtocolFeePercent(uint256)": "a4983421",
    "setSubjectFeePercent(uint256)": "5a8a764e",
    "sharesBalance(address,address)": "020235ff",
    "sharesSupply(address)": "f9931be0",
    "subjectFeePercent()": "24dc441d",
    "transferOwnership(address)": "f2fde38b"
  },
  "id": 23
}